:0400000002008C323C
:01000B0032C2
:0100130032BA
:01001B0032B2
:0100230032AA
:01002B0032A2
:01003300329A
:01003B003292
:030043000204B301
:200048000000E2FBEAF2802C0000E0FBEAF08024E6B50202EBF62200E2B50202EBF222009E
:20006800E0B50202EBF02230F6E0A88220F5D3EAC6F582228B822230F6E6A88220F5D980AE
:01008800CFA8
:0300E5000200898D
:030089000203BCB3
:2000E800AE82AF838E048F051EBEFF011FEC4D600A7D00BD080050EC0D80F822C01A8581CD
:200108001AAF8290E7C0EFF090E7C1E4F090E7C2E51A24FDF8E6F090E7C3E4F090E7C4F00A
:2001280090E7C5F090E7C6F090E7C7F090E68F7408F090E6A2E020E1F9D01A22C01A8581E1
:200148001AAF82E51A24FDF8E6C0E08F821201041581E4C0E07582001201041581D01A22BC
:20016800AF82BF61004016EF248540118F0674A32EFEC006758200120144158122BF410043
:200188004016EF24A540118F0674C32EFEC006758202120144158122BF31004016EF24C613
:2001A80040118F0674ED2EFEC006758200120144158122BF300D7427C0E075820012014473
:2001C800158122BF200D742CC0E0758200120144158122BF2D0D742DC0E0758200120144A5
:2001E800158122BF5F0D742DC0E0758202120144158122BF2E0D7437C0E075820012014438
:20020800158122BF2C0D7436C0E0758200120144158122BF2F0C7438C0E075820012014442
:20022800158122AD82AE83AFF08D828E838FF0120640FC601E0DBD00010E8C82C007C0061A
:20024800C00512016890000A1200E8D005D006D00780D622742CC0E075820812014415819C
:200268009000960200E8AD82AE83AFF0C007C006C00512025CD005D006D0078D828E838F74
:20028800F012022B9000501200E87428C0E0758200120144158122C2B4D2B2D2B0D286A295
:2002A80084B39200E433F508A282B39200E433F509A280B39200E433F50AA297B39200E4FC
:2002C80033F50BD2B4C2B2D2B0D286A284B39200E433F50CA282B39200E433F50DA280B335
:2002E8009200E433F50EA297B39200E433F50FD2B4D2B2C2B0D286A284B39200E433F51056
:20030800A282B39200E433F511A280B39200E433F512A297B39200E433F513D2B4D2B2D251
:20032800B0C286A284B39200E433F514A282B39200E433F515A280B39200E433F516A297E6
:20034800B39200E433F5172212029FE5087040E509703CE50A7038E50B7034E50C7030E580
:200368000D702CE50E7028E50F7024E5107020E511701CE5127018E5137014E5147010E559
:2003880015700CE5167008E5177004C2008002D200A200E433FE6014E5187010C0067404E5
:2003A800C0E07582001201441581D0068E1890000A0200E890E6007410F090E601E043E04D
:2003C80040F090E61174B0F090E61074A0F090E61274F2F090E613E4F090E614F090E61580
:2003E800F090E65C7411F043E80143A88090E680740AF00000000090E680E053E0F7F0755E
:15040800B51575B24275B300D2819005DC1200E812035080FBE6
:20041D00C01A85811AC082C083C0F0058190E68AE4F0FCE51A24FBF8860208860308860776
:20043D00E51A2404F876008A828B838FF0120640FDE51A2404F8C3E69D5050BC400E90E697
:20045D008BECF07C0090E6A0E020E1F9C002C003C0078C050CED2440FDE434E7FFA81A08AD
:20047D00E51A2404F9E726FAE40836FB0886068A828B838EF01206408D828F83F0E51A2463
:20049D0004F806D007D003D002809C90E68BECF0851A81D01A22C020C0E0C0F0C082C083E7
:2004BD00C007C006C005C004C003C002C001C000C0D075D00090E65DE030E40690E65D741A
:2004DD0010F090E65DE020E00302062390E6B9E0FFBF060280030205E790E6BBE0FFBF0108
:2004FD0002801EBF0202802BBF03028038BF06030205DDBF07030205DDBF22028072020520
:20051D00DD7E007F3E90E6B3EFF090E6B47400F00206157E127F3E90E6B3EFF090E6B47400
:20053D0012F002061590E6BAE0FFBF0300400B90E6A0E043E001F002061590E6BAE075F0C7
:20055D0003A42460F582740635F0F583E493A3E49390E6B3F090E6BAE075F003A42460F586
:20057D0082740635F0F583E49390E6B4F002061590E6BCE0701C742BC0E0743EC0E07480F4
:20059D00C0E0903E4EF5F012041D158115811581806690E6BCE0FFBF011C7444C0E0743ECB
:2005BD00C0E07480C0E0903E80F5F012041D158115811581804290E6A0E043E001F080383E
:2005DD0090E6A0E043E001F0802E90E6B9E0FFBF081290E7407401F090E68AE4F090E68B6E
:2005FD0004F0801490E6B9E0FFBF090890E742E0F519800490E6B9E090E6A0E043E080F0B5
:20061D0090E65D7401F0D0D0D000D001D002D003D004D005D006D007D083D082D0F0D0E034
:03063D00D0203298
:09066000C03E80C43E80D43E80FF
:203E0000120110010000004055F0040023010102000109023B0002010080320904000001C4
:203E20000301020009211001000122320007058203400001090401000103010100092110CC
:0D3E4000010001223F000705810340000141
:203E4E0005010902A1010901A1000509190129031500250195037501810295017505810342
:203E6E000501093009311581257F750895028106C0C005010906A101050719E029E7150085
:203E8E00250175019508810295017508810395057501050819012905910295017503910327
:113EAE0095067508150025650507190029658100C058
:203EC000040309041003530065006300430061006D007000140345005A002D004200610099
:0A3EE000640055005300420000008A
:0600BB00E478FFF6D8FD19
:200099007900E94400601B7A00900669780075A0E0E493F2A308B8000205A0D9F4DAF275BF
:0200B900A0FFA6
:2000C1007800E84400600A790075A0E0E4F309D8FC7800E84400600C790090E000E4F0A37F
:0400E100D8FCD9FA74
:0D008C0075812012065CE582600302008988
:1C06400020F71430F6148883A88220F507E6A88375830022E280F7E49322E022C9
:04065C007582002281
:00000001FF
